:020000040800F2
:100000000000022051C40008A1C40008A1C40008D7
:10001000A1C40008A1C40008A1C400080000000099
:10002000000000000000000000000000A1C4000863
:10003000A1C4000800000000A1C400089F9B0008A4
:10004000A1C40008A1C40008A1C40008A1C40008FC
:10005000A1C40008A1C40008959C00089B9C00084E
:10006000A19C0008A79C0008AD9C0008A1C4000842
:10007000A1C40008A1C40008A1C40008A1C40008CC
:10008000A1C40008A1C40008A1C40008D1BB000895
:10009000C5BB0008A1C40008A1C40008B39C0008A7
:1000A0000D89000845880008218900086988000832
:1000B0007D88000891880008A5880008A12500080F
:1000C000AD250008B9250008C5250008A1C4000811
:1000D000A1C4000865A500087DA5000899A5000831
:1000E000C99C0008A1C40008D5BB0008A1C4000831
:1000F000F5880008A1C4000809890008A1C4000807
:10010000A1C40008A1C40008B9880008A1C400085F
:10011000B5A50008CDA50008CD880008E188000835
:10012000A1C40008A1C40008A1C40008A1C400081B
:10013000A1C40008A1C40008A1C40008A1C400080B
:10014000A1C40008A1C40008A1C40008A1C40008FB
:10015000A1C40008A1C40008A1C40008A1C40008EB
:10016000A1C40008A1C40008A1C40008A1C40008DB
:10017000A1C40008A1C4000835890008A1C4000872
:1001800049890008A1C40008E925000805260008DF
:10019000A1C4000800000000A1C40008A1C4000818
:1001A000A1C40008A1C40008A1C40008E5A5000876
:1001B000D1250008DD250008A1C40008A1C400085D
:1001C000A1C40008A1C40008A1C40008A1C400087B
:0801D000A1C40008A1C400084D
:1001E000034613F8012B002AFBD1181A0138704777
:1001F00001F0FF01102A2BDB10F0070F08D010F8D8
:10020000013B013A8B422DD010F0070F42B3F6D1DB
:10021000F0B441EA012141EA014122F007047FF0F4
:1002200000070023F0E80256083C85EA010586EA4B
:10023000010685FA47F5A3FA87F586FA47F6A5FA87
:1002400087F68EB9EED1F0BC01F0FF0102F0070293
:1002500032B110F8013B013A83EA010313B1F8D13E
:100260000020704701387047002D06BF354603381F
:10027000073815F0010F07D1013015F4807F02BF58
:10028000013015F4C03F0130F0BC0138704700BFA9
:1002900081F0004102E000BF83F0004330B54FEA37
:1002A00041044FEA430594EA050F08BF90EA020FA4
:1002B0001FBF54EA000C55EA020C7FEA645C7FEA37
:1002C000655C00F0E2804FEA5454D4EB5555B8BF5A
:1002D0006D420CDD2C4480EA020281EA030382EACB
:1002E000000083EA010180EA020281EA0303362D5D
:1002F00088BF30BD11F0004F4FEA01314FF4801C30
:100300004CEA113102D0404261EB410113F0004F41
:100310004FEA03334CEA133302D0524263EB4303F8
:1003200094EA050F00F0A780A4F10104D5F1200E96
:100330000DDB02FA0EFC22FA05F2801841F10001F1
:1003400003FA0EF2801843FA05F359410EE0A5F1C5
:1003500020050EF1200E012A03FA0EFC28BF4CF0F6
:10036000020C43FA05F3C01851EBE37101F00045AC
:1003700007D54FF0000EDCF1000C7EEB00006EEBB9
:100380000101B1F5801F1BD3B1F5001F0CD3490843
:100390005FEA30004FEA3C0C04F101044FEA44529A
:1003A00012F5800F80F09A80BCF1004F08BF5FEA21
:1003B000500C50F1000041EB045141EA050130BD01
:1003C0005FEA4C0C404141EB0101013C28BFB1F513
:1003D000801FE9D291F0000F04BF01460020B1FA5E
:1003E00081F308BF2033A3F10B03B3F120020CDA31
:1003F0000C3208DD02F1140CC2F10C0201FA0CF00F
:1004000021FA02F10CE002F11402D8BFC2F1200C73
:1004100001FA02F120FA0CFCDCBF41EA0C01904029
:10042000E41AA2BF01EB0451294330BD6FEA040472
:100430001F3C1CDA0C340EDC04F11404C4F120025D
:1004400020FA04F001FA02F340EA030021FA04F36F
:1004500045EA030130BDC4F10C04C4F1200220FAC6
:1004600002F001FA04F340EA0300294630BD21FA04
:1004700004F0294630BD94F0000F83F4801306BFCA
:1004800081F480110134013D4EE77FEA645C18BFBE
:100490007FEA655C29D094EA050F08BF90EA020F55
:1004A00005D054EA000C04BF1946104630BD91EA4D
:1004B000030F1EBF0021002030BD5FEA545C05D150
:1004C0004000494128BF41F0004130BD14F580048F
:1004D0003CBF01F5801130BD01F0004545F0FE4103
:1004E00041F470014FF0000030BD7FEA645C1ABF38
:1004F000194610467FEA655C1CBF0B46024650EA6F
:10050000013406BF52EA033591EA030F41F400219A
:1005100030BD00BF90F0000F04BF0021704730B520
:100520004FF4806404F132044FF000054FF00001F5
:1005300050E700BF90F0000F04BF0021704730B5B6
:100540004FF4806404F1320410F0004548BF40428B
:100550004FF000013EE700BF42004FEAE2014FEAE0
:1005600031014FEA02701FBF12F07F4393F07F4FBB
:1005700081F06051704732F07F4208BF704793F0BE
:100580007F4F04BF41F40021704730B54FF46074D1
:1005900001F0004521F000411CE700BF50EA0102D4
:1005A00008BF704730B54FF000050AE050EA01027D
:1005B00008BF704730B511F0004502D5404261EBED
:1005C00041014FF4806404F132045FEA915C3FF42E
:1005D000D8AE4FF003025FEADC0C18BF03325FEACB
:1005E000DC0C18BF033202EBDC02C2F1200300FA7C
:1005F00003FC20FA02F001FA03FE40EA0E0021FAA1
:1006000002F11444BDE600BF70B54FF0FF0C4CF48E
:10061000E06C1CEA11541DBF1CEA135594EA0C0F40
:1006200095EA0C0F00F0DEF82C4481EA030621EA7B
:100630004C5123EA4C5350EA013518BF52EA0335B6
:1006400041F4801143F4801338D0A0FB02CE4FF068
:100650000005E1FB02E506F00042E0FB03E54FF098
:100660000006E1FB03569CF0000F18BF4EF0010E90
:10067000A4F1FF04B6F5007F64F5407404D25FEA8C
:100680004E0E6D4146EB060642EAC62141EA55513F
:100690004FEAC52040EA5E504FEACE2EB4F1FD0C81
:1006A00088BFBCF5E06F1ED8BEF1004F08BF5FEAFF
:1006B000500E50F1000041EB045170BD06F00046B1
:1006C00046EA010140EA020081EA0301B4EB5C045E
:1006D000C2BFD4EB0C0541EA045170BD41F4801156
:1006E0004FF0000E013C00F3AB8014F1360FDEBF7B
:1006F000002001F0004170BDC4F10004203C35DA57
:100700000C341BDC04F11404C4F1200500FA05F3D9
:1007100020FA04F001FA05F240EA020001F000427A
:1007200021F0004110EBD37021FA04F642EB0601F0
:100730005EEA430E08BF20EAD37070BDC4F10C041A
:10074000C4F1200500FA04F320FA05F001FA04F2DE
:1007500040EA020001F0004110EBD37041F10001CA
:100760005EEA430E08BF20EAD37070BDC4F12005D5
:1007700000FA05F24EEA020E20FA04F301FA05F23D
:1007800043EA020321FA04F001F0004121FA04F2E5
:1007900020EA020000EBD3705EEA430E08BF20EAB5
:1007A000D37070BD94F0000F0FD101F000464000EF
:1007B00041EB010111F4801F08BF013CF7D041EA71
:1007C000060195F0000F18BF704703F00046520075
:1007D00043EB030313F4801F08BF013DF7D043EA46
:1007E0000603704794EA0C0F0CEA135518BF95EAFC
:1007F0000C0F0CD050EA410618BF52EA4306D1D183
:1008000081EA030101F000414FF0000070BD50EAA1
:10081000410606BF1046194652EA430619D094EA2B
:100820000C0F02D150EA013613D195EA0C0F05D115
:1008300052EA03361CBF104619460AD181EA030169
:1008400001F0004141F0FE4141F470014FF0000021
:1008500070BD41F0FE4141F4780170BD70B54FF0BC
:10086000FF0C4CF4E06C1CEA11541DBF1CEA13553C
:1008700094EA0C0F95EA0C0F00F0A7F8A4EB05041E
:1008800081EA030E52EA03354FEA013100F0888015
:100890004FEA03334FF0805545EA131343EA1263DE
:1008A0004FEA022245EA111545EA10654FEA002693
:1008B0000EF000419D4208BF964244F1FD0404F54C
:1008C000407402D25B084FEA3202B61A65EB0305A8
:1008D0005B084FEA32024FF480104FF4002CB6EB65
:1008E000020E75EB030E22BFB61A754640EA0C00E5
:1008F0005B084FEA3202B6EB020E75EB030E22BF25
:10090000B61A754640EA5C005B084FEA3202B6EB65
:10091000020E75EB030E22BFB61A754640EA9C0024
:100920005B084FEA3202B6EB020E75EB030E22BFF4
:10093000B61A754640EADC0055EA060E18D04FEAB2
:10094000051545EA16754FEA06164FEAC30343EA52
:1009500052734FEAC2025FEA1C1CC0D111F4801F1F
:100960000BD141EA00014FF000004FF0004CB6E718
:1009700011F4801F04BF01430020B4F1FD0C88BFB7
:10098000BCF5E06F3FF6AFAEB5EB030C04BFB6EBC2
:10099000020C5FEA500C50F1000041EB045170BDB5
:1009A0000EF0004E4EEA113114EB5C04C2BFD4EBE2
:1009B0000C0541EA045170BD41F480114FF0000E66
:1009C000013C90E645EA060E8DE60CEA135594EAE2
:1009D0000C0F08BF95EA0C0F3FF43BAF94EA0C0FE5
:1009E0000AD150EA01347FF434AF95EA0C0F7FF45A
:1009F00025AF104619462CE795EA0C0F06D152EAAE
:100A000003353FF4FDAE1046194622E750EA410691
:100A100018BF52EA43067FF4C5AE50EA41047FF4A2
:100A20000DAF52EA43057FF4EBAE12E74FF0FF3C07
:100A300006E000BF4FF0010C02E000BF4FF0010CD8
:100A40004DF804CD4FEA410C7FEA6C5C4FEA430C51
:100A500018BF7FEA6C5C1BD001B050EA410C0CBFA0
:100A600052EA430C91EA030F02BF90EA020F002002
:100A7000704710F1000F91EA030F58BF994208BF69
:100A800090422CBFD8176FEAE37040F00100704726
:100A90004FEA410C7FEA6C5C02D150EA013C07D17D
:100AA0004FEA430C7FEA6C5CD6D152EA033CD3D0C8
:100AB0005DF8040B704700BF8446104662468C46C2
:100AC0001946634600E000BF01B5FFF7B7FF0028F5
:100AD00048BF10F1000F01BD4DF808EDFFF7F4FF1E
:100AE0000CBF012000205DF808FB00BF4DF808EDA9
:100AF000FFF7EAFF34BF012000205DF808FB00BFCC
:100B00004DF808EDFFF7E0FF94BF012000205DF8ED
:100B100008FB00BF4DF808EDFFF7CEFF94BF0120A2
:100B200000205DF808FB00BF4DF808EDFFF7C4FF9B
:100B300034BF012000205DF808FB00BF4FEA4102EE
:100B400012F5001215D211D56FF47873B3EB62521F
:100B500012D94FEAC12343F0004343EA505311F046
:100B6000004F23FA02F018BF404270474FF00000D8
:100B7000704750EA013005D111F0004008BF6FF016
:100B8000004070474FF00000704700BF4A0011D28C
:100B900012F5001211D20DD56FF47873B3EB6252D7
:100BA0000ED44FEAC12343F0004343EA505323FAE3
:100BB00002F070474FF00000704750EA013002D158
:100BC0004FF0FF3070474FF0000070474FEA41028E
:100BD000B2F1E04324BFB3F5001CDCF1FE5C0DD99B
:100BE00001F0004C4FEAC0024CEA5070B2F1004FE5
:100BF00040EB830008BF20F00100704711F0804FE8
:100C000021D113F13872BCBF01F00040704741F4AC
:100C100080114FEA5252C2F11802C2F1200C10FAB0
:100C20000CF320FA02F018BF40F001004FEAC12394
:100C30004FEAD32303FA0CFC40EA0C0023FA02F338
:100C40004FEA4303CCE77FEA625307D150EA01330E
:100C50001EBF4FF0FE4040F44000704701F00040DE
:100C600040F0FE4040F40000704700BF10B5054C56
:100C7000237833B9044B13B10448AFF30080012348
:100C8000237010BD2C020020000000006CD400086E
:100C900008B5034B1BB103490348AFF3008008BDFF
:100CA00000000000300200206CD4000810B504469B
:100CB00086B01422002101A80BF0EEFF22680D4B34
:100CC0009A4215D103F5863303F58073DA6C42F04E
:100CD0000202DA64DB6C03F002030093009B012242
:100CE000032301A94FF09040CDE9012303F066FCF6
:100CF00006B010BD0003014070B58C000026C0E9AD
:100D00000116054620460BF099FE22462860314622
:100D10000BF0C2FF284670BD8368026802EB8302B5
:100D200082ED000A42680133B3FBF2F102FB11339A
:100D3000836070474368DFED0A7A0022934206D150
:100D400007EE103AB8EE470A87EE800A704701684E
:100D500001EB820191ED007A013277EE877AEDE7BF
:100D60000000000008B50A210848FFF7C5FF0A2166
:100D70000748FFF7C1FF0A210648FFF7BDFFBDE89E
:100D8000084005484FF0FF3101F0AABE08030020DB
:100D9000FC020020F00200208402002008B5084870
:100DA00001F0C4FE074B18680BF050FE064B1868A4
:100DB0000BF04CFE054B1868BDE808400BF046BE32
:100DC00084020020F0020020FC0200200803002022
:100DD000F8B50B4F0C4605464618B54203D1084DF1
:100DE000142C06D9F8BD15F8011B384600F0F6FCA6
:100DF000F3E72021284600F0F1FC0134F0E700BFC2
:100E00008402002010B52DED028B3B483B4C96B080
:100E1000FFF790FF3A48F0EE408AFFF78BFFF4EEC1
:100E2000408AF1EE10FA3748B0EE408AC8BFB0EE03
:100E3000688AFFF77FFFF1EE047A334904A860EE79
:100E4000278A0BF077FFB0EE480A012110A80BF0BB
:100E5000A1F9109904A80BF027FF10A80BF047F98F
:100E60002A4904A80BF020FF29490AA80BF062FFC9
:100E70002448FFF75FFF012110A80BF08BF91099B0
:100E80000AA80BF011FF10A80BF031F921490AA8AC
:100E90000BF00AFF204910A80BF04CFFB0EE680AD7
:100EA000012101A80BF076F9019910A80BF0FCFEC6
:100EB00001A80BF01CF9194910A80BF0F5FE20460B
:100EC00001F00FFF0023164823611421FFF780FF74
:100ED00004A81421FFF77CFF0AA81421FFF778FF6C
:100EE00010A81421FFF774FF204616B0BDEC028B4A
:100EF000BDE8104002F076BA08030020840200200A
:100F0000FC020020F002002084D4000894D40008E1
:100F100097D40008A7D40008AAD40008BAD40008BF
:100F2000BDD4000837B52A484FF4E13109F048FC38
:100F30000121D1200BF0DEFA0021D1200BF044FB7F
:100F400001212B200BF0D6FA2B2001210BF03CFBCA
:100F50002048214A8023C0E90023402320228360C7
:100F60000023C0E903234FF4A032C0E90A2303752C
:100F70008361436204F03AFD18B1184914480AF03D
:100F8000D1FF1448164CFFF791FE124804F09CFD67
:100F9000144A154BD16DC3F88410D26BC3F8882066
:100FA00001252B463C2202210095204601F0A8FE97
:100FB000204601F096FE2946204600F090FC4FF0B6
:100FC0000113636103B0BDE83040FFF71BBF00BFF2
:100FD0002C0600204802002000030140D2D4000863
:100FE00084020020B8EC0008140300200000000078
:100FF00070B5C9202DED028B0BF066FA07EE900A52
:101000009FED478A474E484D484CF8EE677AC7EE49
:10101000887A17EE900AFFF79FFA39A3D3E90023E5
:10102000FFF7F2FA38A3D3E90023FFF7EDFA38A36C
:10103000D3E90023FFF712FCFFF7C8FD00EE100A0A
:101040003046FFF769FEC0200BF03EFA07EE900A2B
:10105000F8EE677AC7EE887A17EE900AFFF77CFA07
:1010600027A3D3E90023FFF7CFFA27A3D3E900236F
:10107000FFF7CAFA26A3D3E90023FFF7EFFBFFF738
:10108000A5FD00EE100A2A48FFF746FEC2200BF02D
:101090001BFA07EE900AF8EE677A17EE900AFFF750
:1010A0005BFA1DA3D3E90023FFF7AEFAFFF78EFD2D
:1010B00000EE100A2846FFF72FFE1E4920460AF0D0
:1010C00018FF3046FFF736FE022120460AF0CCFF1B
:1010D000194920460AF00DFF2846FFF72BFE022192
:1010E00020460AF0C1FF204614490AF01BFFBDEC60
:1010F000028BBDE87040FFF785BE00BFAFF30080F4
:101100006666666666660A400000000000CCD04055
:10111000000000000030A1409A9999999999A93F3F
:1011200000C07F4408030020F00200202C060020AD
:10113000FC020020E4D40008F6D40008B8D400086B
:101140000020704770472DE9F04F85B01C46BDF96F
:101150003850BDF83C300093A5EB0208A4EB010920
:10116000B8F1000FB8BFC8F10008B9F1000FB8BF5F
:10117000C9F10009C8458246174604DC2B460F46D4
:10118000254611461C46AF4205DC23460C4619464F
:101190002B463D461F467E1BB3B201930B1B83EAD1
:1011A000E372A2EBE372C6F3C03303FA86F68C4215
:1011B000B4BF01234FF0FF33029276100393BD4278
:1011C00002DD05B0BDE8F08FDAF80030C845D3F88D
:1011D00018B0009BC7BF2A462146224629465046E2
:1011E000D847029BF61AB3B236B2002E05DA039A3C
:1011F0001444019A134424B21EB201352DB2DEE725
:10120000704710B404682469A4465DF8044B604735
:1012100030B40468BDF808500295A46BA44630BCF5
:10122000604730B40468BDF808500295E46BA446EA
:1012300030BC604770B4BDF90C50BDF81060046854
:10124000CDE90356246CA44670BC60472DE9F341F8
:101250001C460368BDF820805B6905461646013CC4
:1012600034440F4624B298472B68CDF8048000948C
:101270009C6A28463B4632463946A0472B68DB6AC3
:10128000284602B0BDE8F04118472DE9F3411D465C
:101290000368BDF820805B69044617460E469847F0
:1012A0002268CDE900786B1E3344956A20461BB254
:1012B0003A463146A8472368DB6A204602B0BDE8BB
:1012C000F04118472DE9F3471E460368BDF9288011
:1012D0005B69BDF82C900C46054617469847264496
:1012E000B4422B6805DBDB6A284602B0BDE8F04754
:1012F0001847CDF80090D3F820A0214643463A463F
:1013000028460134D04724B2EAE713B502680191B8
:10131000B0F90E100091146CB0F90C300022114697
:10132000A04702B010BD2DE9F3471D460368BDF884
:101330002C805B69BDF9289004460F4616469847F5
:101340002368CDF80080D3F824A032462B463946D6
:101350002046D0472368CDF8008009F1FF3232449F
:10136000D3F824A039462B46204612B2D047236832
:10137000CDF80080D3F820A032464B4639462046AF
:10138000D047013D2368CDF80080E91920461D6A49
:1013900032464B4609B2A8472368DB6A204602B0B2
:1013A000BDE8F047184770472DE9F74399421546C5
:1013B000BDF92860BDF82C90026807460C46984697
:1013C00011D1B542D8BF3346CDF82890DCBF2E46A8
:1013D0001D466B1C956B9B1B1BB23246AC4603B083
:1013E000BDE8F0436047B5420FD19942D8BF1C46D3
:1013F000CDF82890D66BD8BF88460134A4EB0804FA
:1014000023B22A464146B446E9E7536998473B6808
:10141000CDE9006938469E6A2A4643462146B047D0
:101420003B68DB6A384603B0BDE8F043184701F07B
:1014300003038376B0F90830B0F90A20C9075EBF0C
:10144000194613460A468281C381704730B54281EE
:10145000C281074A074D0181002481814FF0FF318D
:10146000C0E905124460056004610477046230BD80
:1014700001010001F4D500082DE9F04F89B0CDE954
:1014800003120593BDF8503006930368BDF94890E8
:101490005B69BDF94CA00446984719F1070348BFA2
:1014A00009F10E030026DB100293B0463546049B7B
:1014B00003EB08020FFA88F39A4512B226DD0023E7
:1014C0000193059B03EB060B17E059070BBFDB10DD
:1014D0006D001BF80350EDB22B060BD5039B019951
:1014E0000792591823689B6909B21F462046069B3C
:1014F000B847079A019B01330193BDF904304B456E
:10150000E3DB029B08F101081E44D0E72368DB6A95
:10151000204609B0BDE8F04F184700002DE9F04F14
:1015200093B01F460292026ABDF87030BDF8748015
:101530009DF878509DF87C40039383460E46002A20
:1015400040F0C080B0F90C308B4240F34181B0F9DB
:101550000E30029A934240F33B81062313FB05139E
:10156000002B40F3358102EBC403002B40F33081A4
:10157000037F1BB9AF2F84BF0137FFB2DBF8003008
:1015800058465B6998470522099200220492924AC4
:10159000BDF808A007EB8703D3180D93049A0D9BA1
:1015A0009B5C0693BDF810300793B3B2059302FB22
:1015B00005F313FA86F31BB2089308230A932BB2A0
:1015C0000B9323B24FF000090C93069ADBF800301E
:1015D000D20751D5012D1FFA89F23ED1012C3CD101
:1015E0009B69079905981F46039B5244014412B218
:1015F00009B25846B847069B5B0806930A9B013B15
:1016000009F1010913F0FF034FFA89F90A93DCD1BC
:10161000049F01377BB20493099B013B13F0FF0346
:101620000993BBD1039B43450FD0012DDBF800305C
:1016300039D1012C37D10599CDF8008005311C6ACC
:10164000029A082309B25846A047DBF80030DB6A4B
:10165000584613B0BDE8F04F18470399019114FBA9
:1016600002F252440C990091DB6908991F4612B2AC
:101670000B9B5846B847BEE7039A4245BBD0012DA5
:101680001FFA89F209D1012C07D19B6907990598A6
:101690001F46524401444346A9E714FB02F2524458
:1016A000CDF80480DEE70599CDF8048005EB8502CE
:1016B000E40011440094DC69029A2B4609B25846B2
:1016C000A047C2E7137A516812680B92FF1AFFB263
:1016D00001EBC70331F8372004929A7893F905A0FB
:1016E0000792DA7893F90630089345EA0403012B50
:1016F00087BF089B05930023CDE9053303680C924F
:101700005B6988BFCDF818A09847B3B20027109343
:101710001AFA86F3B946B84611930C9B984594D2B1
:10172000BDF808300993059B029A434413FB04F368
:1017300013FA82F32AB21BB20E9222B20A93002647
:101740003B460F9229E05A1CD2B25B070D9207D19B
:10175000049B04990B9A01339BB212F801900493F5
:1017600019F0800F12D0012DDBF800301FD1012CB1
:101770001DD1DDE908120A441199D3F818A0039B82
:101780004244711812B209B25846D0474FEA49098B
:1017900001360D9B5FFA89F9F6B2079A9642D2D3C9
:1017A000174408F10108FFB25FFA88F8B5E7069A16
:1017B0009119109A01FB0521039A01920F9A009248
:1017C000D3F81CA00A9A0E9B09B25846D047DDE711
:1017D00013B0BDE8F08F00BF44D60008F0B5026A30
:1017E00085B004460B46002A34D10A2908D1438A21
:1017F0000282427E03EBC2036382012005B0F0BD8A
:101800000D29FAD0E17E007E657E71B1B4F91060D9
:10181000062111FB0061B4F90C60B142C1BFB4F9FB
:101820001210228201EBC5026282CDE90205E28A32
:101830000192A28A0092B4F91220B4F91010204645
:10184000FFF76CFE237E228A03EB430302EB430384
:101850002382D2E70A2907D100230382417E127B2B
:10186000438A01FB0233C7E70D29C6D0117A8B42A8
:10187000C3D3907A9842C0D35568591AC9B205EBC0
:10188000C105A97829B3E87818B3E07E267E677E83
:1018900090B195F905000844B4F9101006FB001149
:1018A000B4F90C00814207DD00202082B4F9121047
:1018B000127B02FB07126282CDE90267E28A019283
:1018C000A28A0092B4F91220B4F910102046FFF752
:1018D00025FE2979227E238A01FB0233B8E70129FC
:1018E00038BF0121017641767047028BC08A101AF9
:1018F0007047C28A018B914288BF0169034683BF4A
:10190000885C0132DA824FF0FF307047028BC38A65
:101910009A4286BF0269D05C4FF0FF307047806DFD
:10192000D0F8DC302BB100234384D0F8E030D43041
:1019300018477047836810B5044613B10322014667
:101940009847204610BD38B50446283000F0B0FC5A
:10195000E06918B10BF07AF80023E36120690025F3
:10196000258410B10BF072F82561A58238BD000006
:1019700038B50546074B45F8D43B0446FFF7E3FF6F
:101980002846FFF7D7FF04F1C400FFF7D3FF204636
:1019900038BD00BF4CDB000838B5044600F128050F
:1019A000284600F0E7FC94F8BE304BB928460549BC
:1019B00000F084FD28460449BDE8384000F077BDBA
:1019C00038BD00BF1F190008011A00080123994003
:1019D00080F82430002381764384704738B5838AA9
:1019E0008B4205460C4609D2202938BF20240069C5
:1019F00021460BF0E1F810B12861AC8238BDFEE75A
:101A000073B5846D866ED4F8CC300546E3B1E28AB6
:101A1000238B9A4218D331462046FFF7DFFF206917
:101A2000324605F174010BF08DF90023E382D4F8FE
:101A3000CC30268301960BB90BF014FDD4F8D030CE
:101A400001A904F1C400984702B070BDB1F5806FE0
:101A500070B505460C4610D8038C99420AD9202946
:101A60000E4638BF2026C06931460BF0A5F818B1E4
:101A7000E8612E84204670BDFEE70024FAE713B526
:101A800090F824308DF8071004467BB1418C013169
:101A9000FFF7DCFF40B1638CE2699DF80710D15479
:101AA000638C01336384012002B010BD01220DF16B
:101AB0000701283000F071FCB0FA80F04009F3E72C
:101AC00070B590F8243004460E46154693B1418C0B
:101AD0001144FFF7BBFF10B90025284670BD638C89
:101AE000E0692A46184431460BF02CF9638C2B44EC
:101AF0006384F2E792B2283000F04FFC0028EBD16B
:101B0000EBE70346006918B19A8A00210BF0C4B8CC
:101B100070470346C06918B11A8C00210BF0BCB89D
:101B2000704738B50446C9B9AA23A36594F8BE30F6
:101B3000012B16D1638CE269A17E04F1280000F02C
:101B400065FC042828BF042045B22046FFF7E1FFCA
:101B50000023638484F82430E8B238BD4FF42A436C
:101B6000E3E70425F8E70121FFF7DBBF38B50446BA
:101B70000025C5820583FFF7C4FF65842046FFF773
:101B8000C8FF38BDF8B50446D0F884000AF0E2FB7F
:101B900000210AF0AFFCD4F88430C3F30312062A04
:101BA00041D8244D244F55F8222003F00F03126929
:101BB00057F8233093433CD0D4F888000AF0CAFB8E
:101BC00001210AF097FCD4F888001C4BC0F30311E4
:101BD00006291B682AD800F00F02194C57F822700A
:101BE000B3FBF4F3174A0A246343142655F821C0C3
:101BF000CCF82870D2F804E05468A4EB0E04A34299
:101C0000FADCCCF81870D2F804C05468A4EB0C04C9
:101C1000A342FADC013EE9D10AF09CFB3146BDE863
:101C2000F8400AF067BC00231B69FFDE00239B62BB
:101C3000FBE7F8BD0800002040E100084C00002050
:101C400040420F00001000E02DE9F041044600265C
:101C5000C68206831F460D469046FFF752FF6684F4
:101C6000A6762046FFF755FFD4F8DC30C4F8804054
:101C700033B104F1D401032208469847C4E937661A
:101C8000002384F824306B0084F825306B1E5D42FD
:101C90005D4184F8BE50204684F8BF8084F8C0704F
:101CA00004F12805FFF76EFF94F825300949012259
:101CB000284600F00FFA94F8BE304BB92846064982
:101CC00000F0FCFB28460549BDE8F04100F0EFBB01
:101CD000BDE8F081A08601001F190008011A000864
:101CE0000A4600230121FFF7AFBF0022C0E900220E
:101CF000C0E9022270470022C0E90022C0E90222A6
:101D00007047000038B500254FF47A73C0E90153DD
:101D1000104B044640F8C43BFFF7E7FF04F1D40042
:101D2000FFF7E9FF29469C2204F128000AF0B4FFDE
:101D3000094A0A4B116A526A53F82110C4F88410F8
:101D400053F82230C4F88830E56125842561A582E6
:101D5000204638BD4CDB000850EC0008B8EC000809
:101D60000148FFF7CFBF00BF140300200148FFF771
:101D7000FFBD00BF1403002008B52E4B984212D1BE
:101D8000402005F07BFA00284BD12B4BD3F888304C
:101D900003F44053B3F5805F41D0B3F5005F47D003
:101DA000002B3FD0FEE7254B984210D1802005F054
:101DB00065FAB0BB204BD3F8883003F44043B3F549
:101DC000804F2CD0B3F5004F32D05BB3FEE71C4BF5
:101DD000984211D14FF4807005F050FA08BB164BB1
:101DE000D3F8883003F44033B3F5803F17D0B3F510
:101DF000003F1DD0B3B1FEE7124B984216D14FF40D
:101E0000003005F03BFA60B90B4BD3F89C3003F07F
:101E10000303012B03D0022B0AD01BB1FEE70A4BB0
:101E2000186808BDBDE8084005F08CB80020F8E748
:101E30000648F6E7005400400010024000580040F9
:101E400000780040008400404C0000200024F40092
:101E50002DE9F04F8A4B53F831208242A1B00F4652
:101E600007D103EBC102D2F80480B8F1000F40F0B3
:101E700002811C228349844C43F837007A4301EBEA
:101E80005003B3FBF0F0A318A2589D7E01EB52045F
:101E9000B4FBF2FADC8A0894089E1C8A1A8B109212
:101EA00034441794109E9C89CDF844A03444EA1C15
:101EB0004243323CA41A24EAE474089E0994DC8963
:101EC000A41BA4F582740244A21A22EAE2720A92C6
:101ED00000FB05F20B925A68B1FBF2F218929A6875
:101EE000B1FBF2F219920B9A02EB400232321492D9
:101EF00042420692149A00261021821812910D96E1
:101F00004FF0FF383407109D1E94089CF1B22C440A
:101F10001591149913946FF00105AAEB0404511A5A
:101F200005FB02441D940F914FF00009179C0F9D73
:101F3000AC4200F28F801E9C49EA040416940024EF
:101F4000019405944E4C04EBC7041F94099C059D15
:101F5000AC4274D80A9CAC4271D3129C159DAC4221
:101F60006DD00D9C0134072C0D9400F284805C8AA6
:101F7000019D1A94169C2C431B94139C14440E949C
:101F80000B9C141B04941D9C0C9400240394049D2E
:101F90000B9C2C441A9DA54240D2049C323CB0EBD1
:101FA000940F3BD21B9D039C2C430E9D1C94A2EBD3
:101FB0000A042C440C9D0294964607954FF0000CA1
:101FC000029C199D0AEB040B5D451AD8189D5D45CE
:101FD00017D3B3F814B0F34513D8704511D2079D49
:101FE00015EA240538BF2546AB46119DAB4508D2FE
:101FF0001C9D4CEA05081F9DC5F80480159DCDE980
:1020000011B5029D0D440295DDE906450CF5807C75
:102010002544BCF5803F07958E44D1D1039C069D95
:10202000013403940C9C2C440C940E9C0C440E9490
:10203000049C0C440494039CB4F5807FA7D1059CB8
:102040000C440594019C04F58034B4F5801F019480
:102050007FF47CAF0F9C09F580190C44B9F1807FA7
:102060000F947FF463AF06990136091A102E06917A
:1020700002447FF447AF404621B0BDE8F08F00BF77
:102080000804002000CA9A3B70DB000808B50E4B1C
:10209000994212D90D4B994207D80068FFF76CFEA0
:1020A0000121BDE80840FFF7D3BE094B994209D88A
:1020B0000068FFF761FE0221F3E70068FFF75CFEAE
:1020C0000021EEE7002008BDA0860100801A06006E
:1020D00040420F002DE9FF410F4615461E460446BB
:1020E000002800F0D1806A49C06D07F03DFF6949C2
:1020F0008046206E07F038FF0146B8F1000F00F06F
:10210000C380002800F0C080404607F054FF2060E4
:10211000002800F0B980604B984204F1040857D1C0
:1021200003F5DE339A6D42F400129A659A6D02F45B
:1021300000120092009A9A6B42F400129A639A6B12
:1021400022F400129A6342F21F03A4F86430534B46
:10215000C3F800804F49206E07F0EEFE4C49E06D59
:1021600007F0EAFE2368636039462046FFF78EFFDA
:1021700094F89730C4E9020600269B1B18BF012380
:10218000DB04236294F8983094F96400A6619B1BE9
:1021900018BF01235B04636232460221C4E904567E
:1021A00084F8456002F0A0F894F9640002F0CEF8DB
:1021B00094F965003246022102F096F894F9650020
:1021C00002F0C4F8404602F025FC002858D0FEE793
:1021D000334B98421AD103F5DC339A6D42F48002F6
:1021E0009A659A6D02F480020192019A9A6B42F408
:1021F00080029A639A6B22F480029A6342F221234E
:10220000A4F86430254BC3F80480A3E7254B98421B
:1022100019D12548836D43F080438365836D03F0B6
:1022200080430293029B836B43F080438363836B01
:1022300023F08043836345F65C53A4F86430174B66
:10224000C3F8088086E7194B984283D11648C36DBE
:1022500043F00203C365C36D03F002030393039BC2
:10226000C36B43F00203C363C36B23F00203C36376
:1022700045F25233A4F86430084BC3F80C8069E788
:102280000223A06684F8953004B0BDE8F08100BF59
:10229000C8E9000850E9000800540040F803002095
:1022A00000580040007800400010024000840040C8
:1022B00010B5044690F9640002F056F894F96500F0
:1022C00002F052F8201D02F0FBFB206E032107F004
:1022D000A5FDE06D032107F0A1FD2368204A93428C
:1022E0000DD1204B9A6B42F400129A639A6B22F440
:1022F00000129A639A6D22F400129A6510BD1A4A70
:1023000093420CD1174B9A6B42F480029A639A6BFA
:1023100022F480029A639A6D22F48002EDE7134A58
:1023200093420CD10F4B9A6B42F080429A639A6BA6
:1023300022F080429A639A6D22F08042DDE70C4AD7
:102340009342DBD1074BDA6B42F00202DA63DA6BBD
:1023500022F00202DA63DA6D22F00202DA65CDE7DA
:102360000054004000100240005800400078004037
:102370000084004010B50446FFF788FE62681368C9
:1023800023F001031360A060201D02F043FB62688C
:10239000136843F00103136010BD202A30B514D830
:1023A00000239CB2A24207D890F894301344DBB2C9
:1023B00080F89430002030BD90F89440CD5C1C44EF
:1023C0000444013384F87450EBE70120F3E710B5BF
:1023D00064230446043002F08CFB022810D003284A
:1023E00006D090B194F84530202B18BF042004E0AB
:1023F00094F84530202B18BF052008BF022004E0C8
:1024000094F84530202B18BF062010BD2DE9F34766
:1024100004460E4691461F4601F0CCF880463FB96F
:1024200001223146204602B0BDE8F047FFF7CFBF9A
:10243000D4F830A000250434CDF800A03B464A462D
:102440003146204602F0D6FB022807D101F0B2F84F
:10245000A0EB0805642DEFD906201FE008BB01F0B2
:10246000A9F80646204603F0BCFA202809D0632DBF
:1024700007D801F09FF8851B204603F0B5FA002825
:10248000F0D0204603F0B0FA632D0CD882060AD4AF
:1024900043070AD4003818BF0120800002B0BDE80D
:1024A000F0870420FAE70520F8E70320F6E720B1DB
:1024B00019B1C166043002F0CDBC704720B119B12A
:1024C0000167043002F0C6BC704770B590F89130D7
:1024D000012B04460E46A0F1040509D1436E3BB121
:1024E000836E28469847022384F891300023636660
:1024F000012E4FF0000312D1E26E84F891301AB130
:1025000084F890302846904794F8902004F17001A8
:1025100020464FF00073BDE8704002F0D7BB0122A7
:10252000636684F89120616E7431294420464FF02F
:102530008073BDE8704002F02BBC10B590F891306C
:10254000012B044604D1436E13B1836E04389847BF
:10255000022384F89130002363662046BDE81040D2
:1025600002F078BC436E1F2BDEBF436E013343661F
:1025700090F89130012BDAB206D1416E70314FF0F4
:102580008073014402F004BC7047002380F890304F
:10259000704790F892300BB902F05CBC70470000B5
:1025A000014B186802F06ABCF8030020014B186860
:1025B00002F0FBBFF8030020014B586802F05EBC3C
:1025C000F8030020014B586802F0EFBFF803002029
:1025D000014B986802F052BCF8030020014B986848
:1025E00002F0E3BFF803002010B5054BDC6820467D
:1025F00002F044FC2046BDE8104002F0D6BF00BF08
:10260000F8030020014BD86802F0CFBFF803002088
:102610000B490C4A10B58C6952F824408466CC6989
:10262000496952F82440C46652F821200267064ADC
:102630004FF0FF31C0E91D120122A0F87C2010BD2F
:1026400050EC0008B8EC000800093D00002210B46E
:1026500006495DF8044B80F85D200123816780F80E
:102660007C3080F87D2000F073B800BF00093D0089
:1026700017B46B4683E80600816F009A91420446C6
:1026800005D1B0F87C10BDF8042091420FD000981D
:102690009B88A067A4F87C3094F87C3094F87D2067
:1026A000A16F204603B05DF8044B00F051B803B0B1
:1026B0005DF8044B7047704707B5002A8DF8071086
:1026C0000DF107014FF001030CBF0A46002200F094
:1026D00075F99DF8070003B05DF804FB0148FFF7AA
:1026E00097BF00BF2004002030B591FAA1F391FA02
:1026F000A1F1B3FA83F3C4685B000325B1FA81F159
:1027000005FA03F3490024EA03038A401A43C2602E
:1027100030BD00000A4A0346106883B1094A93425B
:1027200001D104F021BC084A934201D104F00ABC53
:10273000064A9342FAD002F580329342F1D07047B4
:102740004C0000200030014000380040003C0040B8
:102750002DE9F04F0E4685B015461F460446002869
:1027600000F0E8808A49C06E07F0FEFB8949814687
:10277000A06E07F0F9FB88498346206F07F0F4FB51
:1027800086498046606F07F0EFFB8246B9F1000F83
:1027900000F0D080BBF1000F00F0CC80B8F1000F4A
:1027A00000F0C8805946484607F005FC514681466E
:1027B000404607F000FC01468046484607F0FBFB18
:1027C0006066B9F1000F00F0B580B8F1000F00F0BD
:1027D000B180002800F0AE80626F2060511C0CBFF9
:1027E0004FF400724FF480224FF48273A261636051
:1027F000FFF790FFB6EB500F6FD2B6EB900F6ED293
:10280000B6EBD00F6DD2B6EB101F6CD2B6EB501FEB
:102810006BD2B6EB901F6AD2B6EBD01F2CBF302321
:102820003823E361002D64D0022D64D0013D18BF30
:1028300001256D000123B7FA87F7C4E904537F0926
:1028400007230026E362FF014FF4E063E360504991
:10285000E06EA660C4E90876A662666307F06CFBCA
:102860004C49A06E07F068FB206F4B4907F064FBF2
:102870002369B342236FC3F3031114BF0122022261
:10288000062998BF464803F00F0398BF50F821006F
:10289000444988BF3046022A51F8231018BF01224C
:1028A000FFF722FF3D49606F07F046FB23683E4A71
:1028B000934222D13D4B1A6E42F480521A661A6E30
:1028C00002F480520092009A1A6C42F480521A6408
:1028D0001A6C22F480521A6424E00023A1E7082332
:1028E0009FE710239DE718239BE7202399E72823E0
:1028F00097E72B469FE700239DE72D4A93421CD183
:102900002A4B9A6D42F480429A659A6D02F4804295
:102910000192019A9A6B42F480429A639A6B22F474
:1029200080429A63204604F0D0FE2268136843F088
:102930004003136005B0BDE8F08F1E4A934211D1E9
:102940001A4B9A6D42F400429A659A6D02F4004265
:102950000292029A9A6B42F400429A639A6B22F4B2
:102960000042DEE7144A9342DCD1104B1A6E42F467
:1029700000421A661A6E02F400420392039A1A6C1D
:1029800042F400421A641A6C22F40042A3E700BF2A
:1029900020E30008CCE2000878E2000824E2000806
:1029A0000800002040E10008003001400010024013
:1029B00000380040003C0040003C01402DE9F0415F
:1029C0000D4616461C4633B3076800F0F3FD8046FB
:1029D000BB689907FCD5D5B115F8013B3B73BB68C3
:1029E000DA07FCD53B7B0EB106F8013B00F0E2FDB7
:1029F000A0EB0800B0F57A7F04F1FF3409D2002C77
:102A0000E6D12046BB681B06FCD4BDE8F081FF235D
:102A1000E4E70120F6E70220F7E7002910B51ADB0A
:102A2000B0F90C408C4216DD002A14DBB0F90E40E0
:102A3000944210DD847E022C0ED0032C15D0012C84
:102A400004D10489A41A013C0A4621B2012B12D0F8
:102A5000022B33D003B310BD0489013C611A4489B1
:102A6000A21A013A09B212B2F0E74489013C641A91
:102A7000114622B2EAE7002A04891346B8BFD31DE3
:102A8000DB1013FB0413C16A02F00700012282402D
:102A9000C85C0243CA54DEE7002A13460489C06AB0
:102AA000B8BFD31DDB1013FB041302F00702012192
:102AB0009140C25C22EA0102C254CCE7002A1346CC
:102AC0000489C06AB8BFD31DDB1013FB041302F0E6
:102AD0000702012101FA02F2C15C4A40ECE7000062
:102AE00038B5202204460D468021FEF7AFFC0C4B82
:102AF0000C4A23600023C4E90A236362FF2384F89D
:102B0000333084F83630084B63664FF6FF7201238A
:102B1000A28684F83750A4F86830204638BD00BF3C
:102B2000CCDB00081403002000093D0010B504466A
:102B3000C06A08B109F08AFF204610BD826AF8B564
:102B400004460D469AB190F930101046FEF73EFF4C
:102B5000A06A036800211B689847A06A0368294699
:102B60001B689847A06ABDE8F840FEF7FCBF006C00
:102B7000266D036823EA06030360606A18B1BDE8A6
:102B8000F840FFF799BDD4E90E230821802016688C
:102B9000A76C054214BF3E43BE4316601E68E76C37
:102BA0003E431E601E68E76C013926EA07061E6078
:102BB0004FEA5000EBD1F8BD38B50446806A0D46A7
:102BC00078B1A16DFEF7E8FEA5F15A012046C9B221
:102BD000FFF7B4FFA06A88B1E16DBDE83840FEF7A9
:102BE000DBBE606A18B1D4E91912FFF741FD626CCF
:102BF000616D136823EA01031360E5E7626C616DA0
:102C00001368606A0B43136018B1BDE83840FFF7E2
:102C100052BD38BD2DE9F0410446806A0D468F183B
:102C200040B394F93010FEF7D1FEA06A036800218A
:102C30001B6898470126AF42A06A03D1BDE8F04166
:102C4000FEF791BF202E0CD1FEF78DFF94F93010C6
:102C5000A06AFEF7BBFEA06A036800211B689847C4
:102C60000126A06A15F8011B036801361B68984706
:102C7000B6B2E0E7226C216D136823EA010313600A
:102C8000AF4201D1BDE8F081606A15F8011B18B1AF
:102C90000022FFF711FDF3E7D4E90E234FF00808F7
:102CA0008026D2F800C0D4F848E0314214BF4CEA84
:102CB0000E0C2CEA0E0CC2F800C0D3F800C0E06C79
:102CC0004CEA000CC3F800C0D3F800C0E06CB8F1C7
:102CD00001082CEA000CC3F800C04FEA5606E0D108
:102CE000CEE7B0F90A30DA1D48BF03F10E02B0F9A1
:102CF0000830C06AD2105A43002109F0CDBF00004D
:102D00002DE9FF411E46C36A9DF8288004460F4600
:102D10001546B3B12046FFF7E4FFB4F90A00B4F951
:102D2000081020281FDC20230122CDE901322038A1
:102D300073237339009300EBD070AF4B01EBD1716B
:102D40001FE0B0F90A30D81D48BF03F10E00B4F9F6
:102D50000830C010584309F071FEE0620028D9D154
:102D600004B0BDE8F08140234FF0010CCDE9013CF7
:102D70005223403852390093A04B00EBD07001EB46
:102D8000D17140F34F0241F34F012046FEF774FB2F
:102D900084F83170A76A002F00F09880002D40F071
:102DA0009380B4F90A30202B14BF3D253C2584F8CC
:102DB0003050B8F1000F03D000213846FEF790FFE5
:102DC000DEB194F93700002817DB012109F092FBEE
:102DD000012194F9370009F0F7FB012009F030FCDC
:102DE000002194F9370009F0EFFB0A2009F028FCD4
:102DF00094F93700012109F0E7FBA06A002800F0F0
:102E00009B81A16DFEF7C8FD04227D492046FFF796
:102E100001FF61890139C9B22046FFF78FFE794968
:102E200004222046FFF7F6FE94F93130012B14BF3F
:102E3000142110212046FFF781FE0422724920460A
:102E4000FFF7E8FE8F23714A84F86030A36893424D
:102E500000F08A8102F50012934240F07A8194F9E1
:102E60003130012B14BFCF239F2384F8603012250B
:102E7000DA212046FFF762FE29462046FFF75EFE74
:102E800081212046FFF75AFE94F860102046FFF794
:102E900055FED9212046FFF751FE94F93130012B20
:102EA00014BFF12122212046FFF748FE2046584951
:102EB0000622FFF7AFFEA06A002800F05781E16DFF
:102EC000FEF76AFD01204BE76DB270E794F935001B
:102ED000012109F00FFB012194F9360009F00AFBEA
:102EE00094F8351094F93520332940D8494B53F8DC
:102EF0002130C3F30313062B48D8474850F823303A
:102F000014333329236443D8424B53F8212002F071
:102F10000F020123934094F8361094F9362023656C
:102F2000332947D83B4B53F82130C3F30313062B07
:102F30009CBF394850F8237007F1140333296364A8
:102F400047D8344B53F8212002F00F02012393405D
:102F500063657A69656A13437B61002D60D0B8F1BF
:102F6000000F3FF42DAF2846FFF770FB28E702F073
:102F7000C003C02B0AD1D92908D8284B02F03F0042
:102F800053F82000234B53F82030B2E73B46B7E715
:102F900002F0C003C02B0AD1D92908D81F4B02F078
:102FA0003F0253F822201B4B53F82220AFE74FF487
:102FB0000043B0E702F0C003C02BBDD1D929BBD874
:102FC000164B02F03F0053F82000124B53F820300C
:102FD000ABE702F0C003C02B0AD1D92908D80F4BA8
:102FE00002F03F0253F822200A4B53F82220ABE7AD
:102FF0004FF40043ACE700BF43DC000823DE0008C9
:103000003FDC00083BDC000837DC000880002000C3
:1030100031DC0008B8EC00080800002050EC000883
:1030200094F93300012109F065FA012194F9340083
:1030300009F060FA94F8331094F93320332937D823
:10304000504B53F82130C3F30313062B3FD84E489F
:1030500050F8233014333329A3633AD8494B53F83B
:10306000212002F00F020123934094F8341094F9C8
:103070003420A36433293ED8424B53F82130C3F3A4
:103080000313062B9CBF404850F8235005F114034E
:103090003329E3633ED83B4B53F8212002F00F0263
:1030A00001239340E3646A6922EA03036B6187E6C4
:1030B00002F0C003C02B0AD1D92908D8334B02F043
:1030C0003F0053F820002F4B53F82030BBE72B462E
:1030D000C0E702F0C003C02B0AD1D92908D82B4B76
:1030E00002F03F0253F82220264B53F82220B8E783
:1030F0004FF40043B9E702F0C003C02BC6D1D92971
:10310000C4D8224B02F03F0053F820001D4B53F867
:103110002030B4E702F0C003C02B0AD1D92908D867
:103120001A4B02F03F0253F82220164B53F822208C
:10313000B4E74FF40043B5E7606A18B1D4E9191257
:10314000FFF796FA626C616D136823EA010313605E
:103150005AE60F4A934207D194F93130012B14BF3C
:10316000AF23102384F86030022581E6626C616D24
:103170001368606A0B43136000283FF4A3AEFFF7A7
:103180009AFA9FE6B8EC00080800002050EC00080E
:103190006000100070B5002ABDF8105022DBB0F9B5
:1031A0000A4094421EDD0029BCBFC9180BB2B0F919
:1031B0000840B8BF0021CE18A642C4BF631A1BB294
:1031C000002B0FDDD61014FB061402F00702C16AB3
:1031D000012000FA02F285422144D2B210D0022D21
:1031E00001D0D5B170BD9BB20C4614F8010B504014
:1031F00004F8010C081B184480B20028F5D1F1E74F
:103200009BB20C4614F8010B104304F8010C081B88
:10321000184480B20028F5D1E4E7D243D2B29BB281
:103220000C4614F8010B104004F8010C081B18445C
:1032300080B20028F5D1D5E7F0B50029BDF81450CB
:1032400052DBB0F90860B1424EDA002ABCBF9B18CD
:103250001BB2B0F90A40B8BF0022D718A742C4BFBA
:10326000A41A23B2002B3FDDC2F3C404C76A16FBC5
:10327000041612F00702DBB207EB060419D0C2F104
:103280000802D2B22E4993423CBF4FF0FF0CA2EB92
:10329000030E895C3CBF4CFA0EFC01EA0C01012DC7
:1032A00023D0022D2CD035B39342B0F908101BD394
:1032B0000C449B1ADBB2072B0ED9022D25D11A46DE
:1032C0002178C9432170083AB0F90810D2B2072A10
:1032D0000C44F5D803F0070333B11A4A012DD35C2F
:1032E00022D0022D28D01DB3F0BD17F806C041EA48
:1032F0000C01B955D8E717F806C02CEA0101F8E728
:1033000017F806C081EA0C01F3E7291E18BF012156
:103310004942C9B21A462170083AB0F90860D2B2DF
:10332000072A3444F7D8D5E7227813432370DBE724
:10333000227822EA0303F9E722785340F6E700BF38
:1033400029DC000821DC000830B41446827EBDF878
:103350000850022A0DD0032A18D0012A11D102895F
:10336000121B013A14B202950A46214630BCFFF7FF
:1033700063BF4289121B013A14B202891944511ADF
:1033800009B20295224630BCFFF704BF42891944B6
:10339000511A09B2E7E730B41446827EBDF80850EE
:1033A000022A0DD0032A18D0012A11D102891C4407
:1033B000141B24B202950A46214630BCFFF7EABE30
:1033C0000289521A013A11B242891C44141B24B2D8
:1033D0000295224630BCFFF72FBF4289521A013AAC
:1033E00011B2E7E72DE9F0410446806A002834D0A5
:1033F000A16DFEF7D1FA05224B492046FFF70AFCE2
:10340000218901392046C9B2FFF798FBB4F90A2097
:103410002689D31DD4E90A0548BF02F10E03DB104B
:1034200016FB03F615FA86F600283BD094F9301007
:10343000FEF7CCFAA06A036840211B689847012771
:10344000B542A06A16D1FEF78EFBA06A00285DD0B7
:10345000E16DBDE8F041FEF79FBA606A18B1D4E9AA
:103460001912FFF705F9626C616D136823EA010315
:103470001360C0E7202F0CD1FEF775FB94F93010D4
:10348000A06AFEF7A3FAA06A036840211B68984768
:103490000127A06A15F8011B036801371B689847CC
:1034A000BFB2CDE7226C216D13680B431360AE42AF
:1034B000CBD0606A15F8011B18B10022FFF7FCF8A9
:1034C000F5E7D4E90E234FF008088027D2F800C0B2
:1034D000D4F848E0394214BF4CEA0E0C2CEA0E0C2A
:1034E000C2F800C0D3F800C0E06C4CEA000CC3F88E
:1034F00000C0D3F800C0E06CB8F101082CEA000C61
:10350000C3F800C04FEA5707E0D1D0E7626C616DA5
:103510001368606A0B43136018B1BDE8F041FFF710
:10352000CAB8BDE8F08100BF1CDC0008704700008D
:1035300038B50F4B1A6805460AB9012038BD4FF45B
:103540007A73B3FBF2F30B4A1068B0FBF3F000F0B0
:103550001DFF04460028F0D10F2DEED80246294663
:103560004FF0FF3000F0C0FE034B20461D60E5E742
:10357000000000204C0000200400002010B50320B3
:1035800000F0A0FE0020FFF7D3FF044618B9FFF7B4
:10359000CDFF204610BD0124FBE70000034A04498B
:1035A000136809680B441360704700BFA004002033
:1035B00000000020014B1868704700BFA0040020E5
:1035C00030B5CC0D04F004041430C1F30451035998
:1035D00007258D4023EA05038A401343035130BD7C
:1035E000806800F0010070478068C0F38000704779
:1035F00037B5002301930446002800F0F480C56D20
:1036000025B906F067F8256684F8585023689A684B
:10361000950041BF9A6822F0204222F03F029A6052
:103620009A68D00040F19F809A68D10000F1B28082
:10363000E26D42F01002E265226E42F00102226663
:1036400001211846FFF7D0FFE26D02F0100202439D
:1036500040F0C580E26D22F4817242F00202E26520
:103660001846FFF7BDFF88B9B3F1A04F03D05F4AFA
:10367000934240F091804FF0A040FFF7B1FF024627
:103680005A48FFF7ADFF024300F09C80E568E26B0B
:1036900094F824002A43A5682A43657F012842EA5A
:1036A000453242EA004202BFA06A00F1FF3042EA1E
:1036B0004042E06A20B1256B00F478702843024351
:1036C000DD684B4828401043D8601A69606B22F0CF
:1036D000406202431A619A6812072CD4D86894F8A1
:1036E0003820257F520020F4804042EA853220F0C5
:1036F000020002432569DA603E481A69002D63D052
:1037000042F480321A61D3F8C02002402A43C3F841
:10371000C02094F84020012A5DD1D4E91125186910
:103720002A436FF38A000243E06C0243206D024398
:1037300042F001021A616269012A05BF186B226A10
:103740001A6B02F1FF3206BF20F00F00024322F095
:103750000F021A63E36D23F0030343F00103E365F3
:10376000084603B030BD9A68234922F0104222F087
:103770003F0242F080529A60204A1268B2FBF1F296
:10378000013252000192019A002A3FF44DAF019A92
:10379000013AF7E7002154E71948FFF721FF0246F5
:1037A0001848FFF71DFF02431748FFF719FF0243B0
:1037B0007FF46CAF15488268656822F47C122A4356
:1037C000826063E71248F6E722F480321A61D3F888
:1037D000C02002409BE71A6922F00102AAE7E36DCC
:1037E00043F01003E3650121BAE700BF0001005078
:1037F0000740F0FF00C0FFFF400D03004C00002019
:103800000004005000050050000600500007005062
:10381000000300500368B3F1A04F2DE9F0410446C6
:103820000E461BD03F48404A4049834218BF0A46D3
:10383000A5699768082D07F01F0721D040F22122C3
:10384000FA40D0070CD5DB6813F0010F17D0E36DF9
:1038500043F02003E3650120BDE8F081324AE7E749
:10386000B3F1A04F09D02F482F4A3049834218BFE7
:103870000A46936813F4604FE8E72B4AF9E70425FA
:10388000FFF798FE804623681A682A422AD0E26D24
:1038900042F40072E265DA6812F4406F0FD1627F81
:1038A0006AB91A6812070AD5E26D22F48072E265DD
:1038B000E26DD6045EBFE26D42F00102E265194A94
:1038C000934225D002F58062934205D1184940F217
:1038D0002122FA40D0071ED5DA68082D1DD11D60BF
:1038E0000020B9E7711CCFD0FFF764FEA0EB080001
:1038F000B04201D8002EC6D123681B682B40C2D12C
:10390000E26D84F8583042F00402E2650320A3E738
:103910004FF0A041DBE7CA68DFE75204E0D40C2295
:103920001A60DDE70001005000030050000700505E
:10393000000400500368186C70470000F7B50023BE
:10394000019390F85830012B05460E4600F0E181B6
:103950000468012380F858302046FFF745FE002810
:1039600040F0D1814A683368910901F00C0104F1FB
:10397000300702F01F0278584FF01F0CC3F3846326
:1039800093400CFA02F220EA020213437B502046D5
:10399000FFF72AFEA26802F0080202433BD1B36897
:1039A0003168B3F1004F7AD12046FFF709FE636911
:1039B00043F00043636137697169E0683268042F3E
:1039C00004F1600373D0C0F3C100400053F827C076
:1039D0008140B34802F0F8420CEA0000104341EA8B
:1039E000000242F0004243F827203169B06953F8E1
:1039F000212022F08072024343F82120317F306978
:103A00004F1E53F820207942794122F0007242EA99
:103A1000416243F820202046FFF7E2FDA0BBF76893
:103A20003368A04AD4F8B01007F0180CC3F31200A2
:103A300022FA0CF21A4021EA00010A43C4F8B0202D
:103A4000994A974220D1002840F090809A0E013286
:103A500002F01F07092F4FF001014FEA826200F2C6
:103A6000A58002F0F842B9401143002840F0998047
:103A70009B0E013303F01F0303EB43031B05B268E6
:103A800019432046FFF79CFD3368884A134240F0F3
:103A9000B5800020002385F8583003B0F0BD1A46E9
:103AA0002046FFF78DFD636923F0004382E7216E16
:103AB000216EC2F31200C1F38461002839D1C2F330
:103AC0008462914202BF226E22F000422266626E40
:103AD0003268616EC2F31200C1F3846100282FD1F5
:103AE000C2F38462914202BF626E22F000426266BB
:103AF0009A6832689968C2F31200C1F3846130BBDE
:103B0000C2F38462914202BF9A6822F000429A6036
:103B1000DA683268D968C2F31200C1F38461E8B987
:103B2000C2F38462914202BFDA6822F00042DA6096
:103B300071E792FAA2F2002AC9D0B2FA82F2C0E783
:103B400092FAA2F2002AD3D0B2FA82F2CAE792FA2B
:103B5000A2F2002ADCD0B2FA82F2D3E792FAA2F201
:103B6000002A3FF458AFB2FA82F2DBE793FAA3F1EE
:103B700031B1B1FA81F2571C07F01F07092F25D880
:103B800093FAA3F293FAA3F7B2FA82F20132B7FAE8
:103B900087F79206013702F0F84207F01F0701216C
:103BA00061E793FAA3F3B3FA83F362E702F0F84212
:103BB000B9401143A8B99B0E013303F01F0303EB77
:103BC00043031E3B1B0543F0007358E7B1FA81F72E
:103BD00001329206013702F0F84207F01F07012177
:103BE000E6E793FAA3F2B2FA82F2013202F01F0280
:103BF00003236FF01D0013FB0203E3E7B4F1A04FB2
:103C000030D02B482B4A2C49844218BF0A462B48F7
:103C10009268834202F0E07102D02948834225D1A4
:103C200010023FF536AFB4F1A04F1DD0254B9C429A
:103C30007FF42FAF204A936823F0E0730B4343F4E3
:103C400000039360204B1A68204BB2FBF3F20C2365
:103C500002FB03330193019B002B3FF41AAF019B3E
:103C6000013BF7E7134AD2E7124AE4E718488342D8
:103C700030D1D2013FF50DAFB4F1A04F0DD00C48BB
:103C80000C4A0D4B844218BF1A46936823F0E07328
:103C90000B4343F080739360FBE6064AF5E700BFF1
:103CA00000F0FF03FFFF070000007F4000000880D6
:103CB000000100500003005000070050000021C325
:103CC0001000C090000600504C000020400D030082
:103CD000000052C7104883427FF4DBAE53023FF529
:103CE000D8AE0E4B9C423FF4D4AE0D4A03F50073A0
:103CF000B4F1A04F08BF1A46936823F0E0730B435A
:103D000043F48003C7E7EA6D42F02002EA651846F3
:103D1000C0E60220C1E600BF000084CB00010050D5
:103D200000070050C06D7047036870B50446184620
:103D3000FFF75AFC9A6802F00802024301D1002002
:103D400070BDDA6892013AD5A08B40F20112904220
:103D500035D1274A19684E0625D540221A6001211F
:103D60001846FFF741FC50B19A68950707D49A6846
:103D700022F0004222F03F0242F010029A60012934
:103D80001FD10425FFF716FC064623689B682B42CB
:103D9000D5D0FFF70FFC801B0528F6D923689B6858
:103DA0002B42F2D001E0013AD4D1E36D43F010038D
:103DB000E365236E43F0010323660120C0E7022977
:103DC000CED19A6810070AD59A68920707D49A68E4
:103DD00022F0004222F03F0242F020029A600229C3
:103DE00003D00329CDD10C25CCE70825CAE700BFB5
:103DF000010040A373B502680446002310460193F6
:103E0000FFF7EEFB10B1002002B070BD9168264BA9
:103E1000194209D0E36D43F01003E365236E43F0CC
:103E2000010323660120EFE7936823F0004323F0AA
:103E30003F0343F00103B2F1A04F936023D01B482E
:103E40001B4B1C49824218BF0B469B6819021CD4AD
:103E5000FFF7B0FB184E054622681368DB07D2D483
:103E60001046FFF7BDFB20B99368334043F00103D0
:103E70009360FFF79FFB401B0228EDD923681B6866
:103E8000DA07E9D4C6E70A4BDFE70C4B1A680C4B9C
:103E9000B2FBF3F20C2302FB03330193019B002BD3
:103EA000D6D0019B013BF8E73F00008000010050A5
:103EB0000003005000070050C0FFFF7F4C000020AF
:103EC000400D030070B504460068B0F1A04F58D013
:103ED00039493A4B3A4A884218BF13469E68FFF761
:103EE00083FB0546002864D194F85830012B60D03C
:103EF000012384F858302046FFF77CFF002855D175
:103F0000E36D2D4A23F4706323F0010343F48073BF
:103F1000E3652368934206F01F0134D002F5806206
:103F2000934233D1A2F5807219B9E56D25F480155D
:103F3000E565E56D15F480551CBF256E25F0060579
:103F400025661C251D6093424FF0000584F85850EB
:103F500005D040F2212525FA01F1C90718D5DA6804
:103F6000920141BFE26D22F4405242F48052E26578
:103F70009A6822F0004222F03F0242F004029A6066
:103F800070BD0E4BAAE74FF0A042CDE71A46CCE732
:103F9000E36D43F48013E365D3689B01F0D5E36DD3
:103FA00023F4405343F48053E365E9E784F8585021
:103FB000E6E70220E4E700BF0001005000030050E4
:103FC00000070050026838B5044610469368FFF7B2
:103FD00007FB08B9002038BD9907FBD4936803F0AC
:103FE0000D03012B19D1936823F0004323F03F0305
:103FF00043F00203936003231360FFF7DBFA0546E7
:1040000023689B68DB07E5D5FFF7D4FA401B02283D
:10401000F6D923689B68DA07F2D5E36D43F0100305
:10402000E365236E43F0010323660120D3E700001C
:1040300070B50446002800F0C080C36D43F0020351
:10404000C3650321FFF770FE2268D36843F40013B1
:10405000D360054630B92046FFF7B4FF054608B9DE
:104060000123E365236856495A680A405A6040F2C2
:10407000FF721A609A6822F0A0429A609A6842F031
:1040800000529A60DA6822F0FF4222F4FF0222F422
:10409000FF4222F07B02DA60DA6842F00042DA6026
:1040A0001A690A401A615A6902F080425A619A6993
:1040B00002F078429A611A6A02F0F0221A625A6A91
:1040C00002F0FF225A629A6A02F0FF229A62196B8A
:1040D0003C4A0A401A635A6B3B490A405A639A6B3E
:1040E0000A409A63DA6B22F4FB6222F00702DA6379
:1040F000196E364A11401966596E11405966996E0B
:1041000011409966D96E0A40DA66D3F8A02030498A
:104110000A40C3F8A020D3F8A4200A40C3F8A42082
:10412000D3F8B0200A40C3F8B020D3F8B420B3F1DC
:10413000A04F22F07F12C3F8B42002D0254A934248
:1041400012D14FF0A040FFF74BFA02462148FFF78B
:1041500047FA02432DD00023C4E91933236684F8BB
:104160005830E365284670BD1B48FFF739FA024610
:104170001A48FFF735FA02431948FFF731FA0243AC
:10418000E9D1184A9168B3F1A04F14D0114E164AE4
:104190001448B34218BF024621F0FF7121F4F731F1
:1041A00021F48F7121F001019160204605F0F4FAAD
:1041B000D1E70D4AE6E70C4AEEE70125D2E700BF5A
:1041C00000F8FFFF300882E0200882E000F0FF03E3
:1041D0000000F8FF000100500004005000050050EE
:1041E00000060050000700500003005010B590F882
:1041F0005830012B044616D0012380F85830032193
:10420000FFF792FD58B92046FFF7DCFE38B9E36DA1
:1042100023F4885323F0010343F00103E3650023F3
:1042200084F8583010BD0220FCE7000037B50023A9
:10423000019390F85830012B04460D463DD00123E0
:1042400080F85830FFF7BEFEE36D002832D123F42A
:10425000885323F00203226843F00203E365936866
:1042600023F0404323F03F0305F080452B4343F008
:10427000004393609368002B12DA019B0133019392
:1042800001990F4B9942F5D9E36D23F0120343F0E6
:104290001003E365002384F85830012003B030BDDB
:1042A000E36D23F0030343F00103E365002384F887
:1042B0005830F3E743F01003F7E70220EEE700BFC2
:1042C00001DE04000749CA6822F4E0620302120416
:1042D00003F4E063120C134343F0BF6343F4003371
:1042E000CB60704700ED00E0164B30B5DC68C4F3DE
:1042F0000224C4F10703251D042B28BF0423062D27
:104300004FF0FF358CBF033C002405FA03F321EA8C
:104310000303A54022EA0502A340002843EA020362
:10432000ACBF00F16040084A4FEA0313B8BF00F089
:104330000F00DBB2AABF00F56140135480F80033D0
:1043400030BD00BF00ED00E014ED00E0002807DB09
:10435000044A4109012300F01F00834042F8213044
:10436000704700BF00E100E000280CDB430906496C
:1043700000F01F0020330122824041F82320BFF3C8
:104380004F8FBFF36F8F704700E100E00138B0F14D
:10439000807F0BD24FF0E023054A5861F02182F86C
:1043A00023100020072298611A617047012070478E
:1043B00000ED00E0002808DB4309044900F01F007D
:1043C00001226033824041F82320704700E100E081
:1043D000704708B5FFF7FCFF08BD704710B50446ED
:1043E00008B9012010BD437F03F0FF0213B9027723
:1043F000FFF7F3FF022363772379E3B92368134AB6
:104400005A619A6822F018029A6062792368D2B9D8
:104410004FF0FF321A619A68616922F060020A4324
:104420009A609A68A16922F080020A439A60012387
:1044300063770020D6E7D4E90212204600F008F89E
:104440000028E2D0CDE72269E4E700BFB71DC10430
:10445000CB0710B50DD51F23013B1DD321FA03F463
:10446000E407F9D5102A13D0102A04D83AB1082A43
:1044700010D001200BE0182AFBD1062BF9D80068D8
:104480004161836823F0180313438360002010BD4B
:10449000072BF3E70F2BF1E7102AE5D1E9E710B579
:1044A000044640B10223037105F09EF8002020610C
:1044B0006071207110BD0120FCE710B5012358B1D7
:1044C000046801F01001226803FA01F122EA0102F6
:1044D00022600371002010BD1846FCE790F82520EB
:1044E000022A034609D00422C2630120012283F874
:1044F0002520002283F8242070470268806C116810
:1045000021F00E011160016821F4807101601168D1
:1045100021F001011160D3E9100202F01F01012214
:104520008A404260D3E9132151605A6D32B111685B
:1045300021F480711160D3E9162151600020D5E784
:1045400008B590F82530022B09D00423C36300225C
:10455000012380F8253080F82420184608BD036820
:104560001A6822F00E021A601A6822F001021A601C
:10457000826C136823F480731360D0E9101303F086
:104580001F02012393404B60D0E913325A60436D00
:1045900033B11A6822F480721A60D0E916325A6078
:1045A000012380F82530002380F82430836B03B189
:1045B00098470020D2E790F8250070472DE9F74F83
:1045C000DFF888915F4C00230A6832FA03F502D1C4
:1045D00003B0BDE8F08F012505FA03F818EA0202DE
:1045E00000F0A4804E68032706F003054FEA430E4F
:1045F00007FA0EFC6F1E012F6FEA0C0C34D8876887
:1046000007EA0C0ACF6807FA0EF747EA0A0787603D
:10461000476827EA0808C6F300179F4047EA0807DB
:104620004760C76807EA0C088F6807FA0EF747EA81
:104630000807022DC76019D14FEAD30800EB88089C
:1046400003F0070AD8F820704FEA8A0A4FF00F0BE0
:104650000BFA0AFB27EA0B0B0F6907FA0AF747EA7E
:104660000B07C8F8207001E0032DDAD1076805FABE
:104670000EF507EA0C073D4316F4403F056055D0A0
:10468000D9F8605045F00105C9F86050D9F860507C
:1046900023F0030707F1804705F0010507F5803790
:1046A000019503F0030C019DBD684FEA8C0C4FF09F
:1046B0000F0E0EFA0CFEB0F1904F25EA0E0E37D019
:1046C000214DA84236D005F58065A84234D005F5C5
:1046D0008065A84232D005F58065A84230D005F546
:1046E0008065A84214BF0625052505FA0CF545EAA4
:1046F0000E05BD60A568D74316F4801F0CBF3D4072
:104700001543A560E56816F4001F0CBF3D40154336
:10471000E560656816F4003F0CBF3D4015436560D9
:104720002568F60354BF3D401543256001334BE730
:104730000025DAE70125D8E70225D6E70325D4E7E7
:104740000425D2E7000401400004004800100240A4
:10475000044A5169014208B502D0506105F084FA5B
:1047600008BD00BF0004014003689A69910744BF77
:1047700000229A629A69D2075EBF9A6942F00102EA
:104780009A61704730B5039D04682B4343EA0243A6
:10479000064A6068C1F309010B4342EA555223F00F
:1047A000004320EA02000343636030BDFF63FF0360
:1047B000204B426B9A4270B501F001030DB201F03B
:1047C00002041FD01C4EB2421CD01C4EB24219D063
:1047D000002DC3F10003B4BFB822002203F0F2039E
:1047E00013430CB143F0F403102902D143F09003BA
:1047F00003E0202901D143F0200301680A68134334
:104800000B6070BD002DC3F10003B4BFB8220022BD
:1048100003F0F20313430CB143F0F4031029E5D085
:10482000202902D143F06003E7E7402908BF43F0A5
:104830004003E2E7A9540008C1570008815300086B
:1048400011F0010307D090F8413003F02803282B22
:1048500014BFF22342238A0709D590F8412002F0C1
:104860002802282A0CBF43F0440343F0F4030A044F
:1048700001680A6848BF43F0B80322EA03030B60EB
:10488000704703682DE9F0419C6914F01004054657
:104890000F4616466FD010220024DA61A0462B681E
:1048A0009A69900661D4B8F1000F35D044F0040441
:1048B00001202E68B369D90541BF4FF48072F261BF
:1048C00044F0010401205A0541BF4FF4806244F0D6
:1048D0000804F26101209B054FD54FF4007344F0AA
:1048E0000204F3612846FFF73FFF736823F0FF736C
:1048F00023F48B3323F4FF7323F0010373606B6C99
:1049000023436B64202385F84130002385F842302F
:1049100085F84030012032E07A1CC1D0FEF74AFE13
:10492000801BB84201D8002FB9D12B68596895F87F
:10493000422098690004D2B20AD5490408D4202A3A
:1049400006D05A6842F480425A60FEF733FE0646AB
:104950002B689B699B06A2D4FEF72CFE801B1928AE
:10496000F6D920244FF0010899E7B8F1000F9DD146
:104970002022DA619AE720469BE70028B2D1BDE801
:10498000F0812DE9F041DDF8188004460F46164607
:104990001D4623689B6937EA03030CBF01230023EC
:1049A000B34201D0002025E0424629462046FFF7C9
:1049B00068FFF0B96B1CECD0FEF7FCFDA0EB080023
:1049C000A84201D8002DE4D123689B6937EA03038C
:1049D0000CBF01230023B342DBD1636C43F02003FF
:1049E0006364202384F84130002384F8423084F843
:1049F00040300120BDE8F081C36AAA2B02D1002318
:104A0000C3627047C36AB3F52A4FFAD14FF00073FF
:104A1000F6E7704710B5044600284ED090F84130B4
:104A200003F0FF021BB980F84020FFF7F2FF2423B8
:104A300084F8413023681A6822F001021A60626823
:104A400022F070621A619A6822F400429A60D4E9F6
:104A50000221012906D142F400429A605A6822F4E8
:104A6000006207E042F4044202299A60F6D15A68D3
:104A700042F400625A605A6842F0007242F4004206
:104A80005A60DA6822F40042DA60D4E904210A4369
:104A9000A16942EA0122DA60D4E907210A431A60D7
:104AA0001A6842F001021A6000202023606484F832
:104AB0004130206384F8420010BD0120FCE77047BC
:104AC00010B5044698B10268242380F84130136879
:104AD00023F001031360FFF7F2FF0020606484F805
:104AE000400084F84100206384F8420010BD01209A
:104AF000FCE72DE9F04385B01D460023039390F8B1
:104B00004130202B0446174672D103689B6913F489
:104B100000436DD190F84020012A69D00122C1F3F1
:104B2000090680F8402046F00078242280F84120D1
:104B300048F420584364E3682268012B06BF46F01E
:104B4000007343F4005343465360FEF733FD814640
:104B5000226893699269C3F34013C2F300121343AE
:104B600016D023689A69CDF8009012F010022B46F7
:104B700024D120212046FFF704FFE8B92268202332
:104B8000D36184F8413084F8400005B0BDE8F0837B
:104B90006B1CDDD0FEF70EFDA0EB0900A84201D88A
:104BA000002DD5D1202384F84130636C43F02003DD
:104BB0006364002384F840300120E6E700222021CE
:104BC0002046FFF7DEFE0028F6D123681022DA61C6
:104BD0002022DA61039B01330393039BBB42AAD3D8
:104BE00084F84120636C84F8400013436364E3E776
:104BF0000220CAE72DE9F3410446104694F841200B
:104C0000089F202A88465AD194F84020012A56D07D
:104C1000012284F84020212284F84120102284F8C7
:104C20004220002262646385E762264B6363638DE2
:104C300060629BB2FF2B99BF638D2385FF23238581
:104C4000228D94BFE56A4FF0807527F000765AB147
:104C5000E6B9216810F8013B8B626062608D013813
:104C600080B2531E60852385236B112B04D1AA2F9C
:104C700002D0B7F52A4F0BD12046FFF7BDFE638D5A
:104C80009BB2FF2B00D8E56A0F4B02E00022EBE756
:104C9000002300932B467EB9D2B241462046002520
:104CA000FFF770FD204684F840500121FFF780FD9A
:104CB000284602B0BDE8F08194F82820EDE70220F4
:104CC000F7E700BF4D52000800200080F8B51F46EE
:104CD00090F8413003F02803282B04460E46154671
:104CE00001D00120F8BD01B11AB94FF4007363641B
:104CF000F7E748F20101FFF7A3FD90F84030012BE0
:104D000040D0012380F8403090F841302A2B14D154
:104D10000221FFF795FD03681A6810040DD51A6883
:104D2000E06B22F400421A6038B1174B8363FFF73F
:104D300007FC10B1E06B836B9847292384F841305E
:104D400020682023002284F842306264436823F400
:104D5000004343606585638D2385E7620B4B636386
:104D6000836981696662C90303D51B0744BF0823B1
:104D7000C361204684F8402048F20101FFF718FD86
:104D80000020AFE70220ADE7CD590008BB5800086E
:104D9000F8B51F4690F8413003F02803282B04464D
:104DA0000E46154601D00120F8BD01B11AB94FF4E5
:104DB00000736364F7E748F20201FFF741FD90F8E2
:104DC0004030012B3FD090F841300121292B80F851
:104DD000401013D1FFF734FD03681A6850040DD555
:104DE0001A68A06B22F480421A6038B1174B8363B3
:104DF000FFF7A6FB10B1A06B836B98472A2384F8BA
:104E0000413020682023002284F8423062644368E5
:104E100023F4004343606585638D2385E7620C4B73
:104E20006363836981696662C90303D41B0744BF56
:104E30000823C361204684F8402048F20201FFF7AE
:104E4000B7FC0020B0E70220AEE700BFCD59000854
:104E5000BB58000808B590F84120202A0AD1282222
:104E600080F84120044A42634FF40041FFF7A0FC60
:104E7000002008BD0220FCE7BB5800080268436B15
:104E80009169126803B1184770477047704738B589
:104E9000002580F8425090F84130212B4FF020033C
:104EA00080F841300AD11123036345630121FFF7E4
:104EB000C7FC80F84050FFF7E8FF38BD12230363BA
:104EC00045630221FFF7BCFC80F84050FFF7DEFF8E
:104ED000F3E708B503681A68002180F8421051040E
:104EE00015D51A6822F480421A6090F84130292BB7
:104EF00013D1282380F84130212303630121FFF7D8
:104F00009FFC002380F84030FDF73FFB08BD1204F2
:104F1000EBD51A6822F40042E6E790F841302A2BDC
:104F2000F4D1282380F84130222303630221FFF7C4
:104F300087FC002380F84030FDF714FBE6E790F88B
:104F4000412002F02802282AF8B5036834D19E696E
:104F5000C2689D699968DF682D0C022AC6F3004675
:104F600005F0FE051FD185EAD11515F00605C1F340
:104F700009020ED1816C01318164816C022907D153
:104F800008218564D96180F840503146FDF79DFACB
:104F9000F8BD4FF40041FFF753FC002380F8403088
:104FA00007F0FE02F1E74FF40041FFF749FC002350
:104FB00080F840302A46E8E70822DA61002380F8CA
:104FC0004030E5E708B5164BC36220220023036397
:104FD000436380F8412080F842304B0712D50368C4
:104FE0005A6A436A1A70436A01334362038D4BB1B4
:104FF000013B0385438D013B9BB24385436C43F0EA
:105000000403436448F20301FFF71AFC036810220B
:10501000DA61002380F84030FDF78FFA08BD00BF49
:105020000000FFFF70477047704790F84120602AEA
:1050300008B54FF0000208D1202180F8411080F817
:1050400040200263FFF7F0FF08BD026380F84020B4
:10505000FDF79FFAF8E7000070B500223D4D90F88B
:10506000413080F84220C5624285426C283B0A43A9
:10507000022B044642642AD80321FFF7E1FB2823D0
:1050800080F84130344BA06B6363236B002841D020
:10509000112B01D0212B3DD123681A68510442BF46
:1050A0001A6822F480421A60FFF785FA01282CD092
:1050B000A06B2A4B8363002384F84030FFF740FA4B
:1050C000002845D0A06B836BBDE87040184748F2BC
:1050D0000301FFF7B5FBFFF747FB90F84130602B6A
:1050E00011D0202380F8413003689A6995060AD5CB
:1050F0009A69D00605D51022DA61626C42F004028A
:1051000062642022DA610023BDE72046BDE87040DA
:10511000FFF78BBFE06B0028F7D0122B01D0222BBA
:10512000F3D123681A68120442BF1A6822F40042BD
:105130001A60FFF740FA0128E7D0E06B074B836362
:10514000002384F84030FFF7FBF908B1E06BBAE7C1
:1051500070BD00BF0000FFFFBB580008CD5900081C
:1051600073B505682023EB6190F84130212B04468C
:105170000E4635D10121FFF763FB112323636B68D2
:1051800023F0FF7323F48B3323F4FF7323F0010325
:105190006B6000236363F206A3F58033E36205D5F9
:1051A0001023EB61636C43F00403636494F84130B3
:1051B000602B05D1730741BF6B6ADBB20193019B82
:1051C0002046FFF7D1FA636C94F84120602A00D0A2
:1051D0007BB1616C204602B0BDE87040FFF73CBF78
:1051E00090F84130222BCAD10221FFF729FB12236C
:1051F000C4E794F84120212A12D1202284F84120CA
:10520000236394F8422084F84030402A84F84230E6
:1052100003D1FFF707FF02B070BDFFF736FEFAE7D4
:1052200094F84120222AF6D1202284F841202363D9
:1052300094F8422084F84030402A84F8423002D169
:10524000FFF7F1FEE7E7FFF721FEE4E773B590F81B
:105250004030012B04460D46164600F08E80012397
:10526000E90680F8403017D5F20615D503681022FC
:10527000DA61436C43F004034364FFF775FAAA064E
:1052800005D5B30603D529462046FFF769FF002060
:1052900084F8400002B070BD6B0712D5700710D5BE
:1052A00023685A6A636A1A70636A25F00405013339
:1052B0006362238D013B2385638D013B9BB2638534
:1052C000DDE76906C5F380130DD4AA070BD5B00737
:1052D00009D5638D9BB2002BD1D0636A226813F885
:1052E000011B9162E4E7290632D57206C7D5638DAA
:1052F00022689BB203B3208DF0B95168638D9BB2D5
:10530000FF2BC1F3090108D9FF2222854FF08073DA
:1053100000902046FFF736FAB1E7628DE36A92B259
:1053200013F5803F2285D2B202D0E36A0090F0E705
:1053300000904FF00073ECE753689B0103D42046C4
:10534000FFF7A5FD9BE740212046FFF785FE96E786
:10535000002B94D0700692D5638D9BB2002BF2D1B6
:1053600023685A6891018AD4E26A12F5803FE6D137
:105370005A6842F480425A6081E702208AE70000BE
:1053800013B590F84030012B044600F086800123CD
:1053900080F84030CB0612D5D30610D50368102212
:1053A000DA61436C43F0040343642021FFF700FA01
:1053B000FFF7DAF9002084F8400002B010BD88073A
:1053C00008D5930706D52368226D9A624FF0FF3304
:1053D0002365EFE7080636D5530634D5012120466C
:1053E000FFF72EFA1021FFF7E3F9638D9BB233B379
:1053F000638D9BB2FF2B18D9FF22E16C228500231D
:1054000000934FF0807389B2FFF7BCF9638D228D52
:105410009B1A9BB2638594F841202368222A1A685C
:1054200030D142F400421A60C4E7628DE16C92B25E
:10543000228500230093D2B24FF00073E3E74021AE
:10544000FFF70AFEB6E748061FD553061DD5012112
:105450002046FFF7F5F91021FFF7AAF994F841105B
:105460000F4A104B222918BF1346628D92B2FF2AB1
:1054700003D9FF22E16C2285C2E7628DE16C92B212
:105480002285D7E742F48042CDE7880692D593067D
:1054900090D52046FFF764FE8CE702208DE700BF21
:1054A000002000800024008073B590F84030012B6C
:1054B000044678D0012380F84030CB0612D5D606BA
:1054C00010D503681022DA61436C43F0040343648F
:1054D0002021FFF76DF9FFF747F9002084F840001D
:1054E00002B070BD0D0641D550063FD525682B682A
:1054F00023F040032B60638D9BB25BB36968638DBF
:105500009BB2FF2BC1F309011AD9FF2323854FF06A
:1055100080730022268D009294F828202046FFF701
:1055200031F9638D9B1B9BB2638594F84130222B2C
:105530002B680CBF43F4004343F480432B60CCE75B
:10554000638D2385E36A13F5803F14BFE36A4FF050
:105550000073DEE76B689A0103D42046FFF797FCDF
:10556000BBE740212046FFF777FDB6E74B0612D593
:10557000560610D5638D9BB2002BF2D123685A6872
:105580009501AAD4E26A12F5803FE6D15A6842F446
:1055900080425A60A1E788069FD593069DD5204694
:1055A000FFF7DEFD99E702209AE7036899691A6818
:1055B00010B4CC0508D5140606D5446C44F001049B
:1055C00044644FF48074DC614C0508D5140606D59C
:1055D000446C44F0080444644FF48064DC61890541
:1055E00008D5120606D5426C42F0020242644FF41E
:1055F0000072DA61416C11F00B0F03D05DF8044BBF
:10560000FFF72ABD5DF8044B704700002DE9F0411B
:105610000568D5F80080C76A90F841302022213B08
:1056200004460E46EA61092B0CD8DFE803F0056B4F
:105630000B0B0B0B0B71056B48F20101FFF700F927
:10564000212323636B6843F400436B606B6823F092
:10565000FF7323F48B3323F4FF7323F001036B6098
:105660002046FFF781F818F4804F57D02B6823F4B9
:1056700080432B60A36B1BB11B685B689BB2638587
:1056800072070FD5636A6A6A1A70636A01336362CC
:10569000238D26F004062BB1013B2385638D013B4E
:1056A0009BB26385638D9BB21BB1636C43F00403B3
:1056B0006364F30611D518F0100F0ED0638D9BB202
:1056C000002B45D194F84130282B30D1B7F1007F21
:1056D0002DD131462046FFF775FC002384F8423077
:1056E000656C6363002D42D0616C2046FFF7B4FC0B
:1056F00094F84130282B4CD131462046BDE8F0418A
:10570000FFF760BC48F20201FFF79AF8222398E7FE
:1057100048F20301FFF794F8002392E718F4004FD2
:10572000AED02B6823F400432B60E36BA3E794F81F
:1057300041202368292A4FF01002DA61CDD117F5F4
:10574000803FCAD02046FFF70FF8FFF7C2FBC4E73F
:1057500023681022DA61636C43F00403636437F05A
:105760008073BAD1616C2046FFF776FCB5E7E36A37
:1057700013F5803F0FD02046FFF7ABFB0F4BE362E2
:10578000202384F8413084F8405025632046FCF7FC
:10579000D4FEBDE8F08194F8413084F84050222BCB
:1057A0004FF0200384F841302046256302D1FCF7F6
:1057B000D9FEEEE7FCF7E9FEEBE700BF0000FFFFD4
:1057C00070B590F84060C56A012E04460B4672D051
:1057D000012680F840608E0607D5960605D5FFF7AE
:1057E00015FF002084F8400070BDDE065BD5D006B2
:1057F00059D5C2F3803002F4004250EA02014ED083
:10580000E16BC9B122B10A685268B2FA82F2520958
:10581000A16B19B110B10968496809B1012A1ED1FB
:1058200094F84120282A09D1B5F1007F06D1194604
:105830002046FFF7C7FBD4E70A46E9E794F8412082
:105840002368292A4FF01002DA61CAD115F5803F8A
:10585000C7D02046FEF788FFFFF73BFBC1E7236870
:105860001022DA61636C43F00403636494F84130FE
:1058700035F08072DBB2B4D1213B092B08D8DFE8C8
:1058800003F0050C070707070707050C212323630F
:10589000616C2046FFF7E0FBA3E72223F7E72368CC
:1058A0001022DA619DE719079BD5130799D5204689
:1058B000FFF745FB95E7022096E770B590F840604A
:1058C000C56A012E04460B467ED0012680F8406052
:1058D0008E0607D5960605D5FFF798FE002084F8BA
:1058E000400070BDD90630D5D6062ED5628D92B255
:1058F000E2B994F84120282A07D1B5F1007F04D1FC
:1059000019462046FFF75EFBE8E794F8412023683C
:10591000292A4FF01002DA61E0D115F5803FDDD081
:105920002046FEF721FFFFF7D4FAD7E723681022BD
:10593000DA61636C43F00403636435F08073CDD1A6
:10594000616C2046FFF788FBC8E758071BD5510755
:1059500019D5638D9BB26BB123685A6A636A1A705A
:10596000636A01336362238D013B2385638D013BB1
:105970009BB26385638D9BB2002BAFD115F5803F41
:10598000ACD02046CFE71E0705D5100703D520462B
:10599000FFF7D5FAA2E79907A0D593079ED5638DA7
:1059A0009BB26BB1636A226813F8011B9162636258
:1059B000638D013B9BB26385238D013B23858DE77E
:1059C00035F080738AD1DCE702208AE7806A836B36
:1059D0000BB100229A63C36B0BB100229A63FFF7ED
:1059E00024BB90F841007047406C70472DE9F743A5
:1059F0000446002862D090F83A30052B5ED090F82B
:105A00003A30022B5AD02E4B1A6E42F001021A661F
:105A10001B6E03F001030193019B90F83A3003F0F1
:105A2000FF020BB980F839202046FBF73FF92168C7
:105A3000A3680E68D4F82C90D4F81080214823F085
:105A4000200226F01006402A46EA09066268D4E9D8
:105A500009ECD4E90C750E6043EA020318BFE26852
:105A60000E6818BF134343EA0803227D43EA0E037E
:105A700043EA0C03064043EAC743501E424243EA4E
:105A800005634241334343EA02230B608B69002BD9
:105A900009DBD4E906308A690343206A22F03F0219
:105AA000034313438B6194F83A301BB1002003B0D9
:105AB000BDE8F083012384F83A30F7E70120F6E7E8
:105AC00000100240113E00E088B190F83A30052BFA
:105AD0000DD090F83A30012B09D10268136843F0D9
